{
	"_format": "hh-sol-artifact-1",
	"contractName": "MyNFT",
	"sourceName": "contracts/MintingContract.sol",
	"abi": [
		{
			"inputs": [
				{
					"internalType": "string",
					"name": "_name",
					"type": "string"
				},
				{
					"internalType": "string",
					"name": "_symbol",
					"type": "string"
				},
				{
					"internalType": "string",
					"name": "_initBaseURI",
					"type": "string"
				},
				{
					"internalType": "string",
					"name": "_initNotRevealedUri",
					"type": "string"
				}
			],
			"stateMutability": "nonpayable",
			"type": "constructor"
		},
		{
			"anonymous": false,
			"inputs": [
				{
					"indexed": true,
					"internalType": "address",
					"name": "owner",
					"type": "address"
				},
				{
					"indexed": true,
					"internalType": "address",
					"name": "approved",
					"type": "address"
				},
				{
					"indexed": true,
					"internalType": "uint256",
					"name": "tokenId",
					"type": "uint256"
				}
			],
			"name": "Approval",
			"type": "event"
		},
		{
			"anonymous": false,
			"inputs": [
				{
					"indexed": true,
					"internalType": "address",
					"name": "owner",
					"type": "address"
				},
				{
					"indexed": true,
					"internalType": "address",
					"name": "operator",
					"type": "address"
				},
				{
					"indexed": false,
					"internalType": "bool",
					"name": "approved",
					"type": "bool"
				}
			],
			"name": "ApprovalForAll",
			"type": "event"
		},
		{
			"inputs": [
				{
					"internalType": "address",
					"name": "to",
					"type": "address"
				},
				{
					"internalType": "uint256",
					"name": "tokenId",
					"type": "uint256"
				}
			],
			"name": "approve",
			"outputs": [],
			"stateMutability": "nonpayable",
			"type": "function"
		},
		{
			"inputs": [
				{
					"internalType": "uint256",
					"name": "_mintAmount",
					"type": "uint256"
				}
			],
			"name": "mint",
			"outputs": [],
			"stateMutability": "payable",
			"type": "function"
		},
		{
			"anonymous": false,
			"inputs": [
				{
					"indexed": true,
					"internalType": "address",
					"name": "previousOwner",
					"type": "address"
				},
				{
					"indexed": true,
					"internalType": "address",
					"name": "newOwner",
					"type": "address"
				}
			],
			"name": "OwnershipTransferred",
			"type": "event"
		},
		{
			"inputs": [
				{
					"internalType": "bool",
					"name": "_state",
					"type": "bool"
				}
			],
			"name": "pause",
			"outputs": [],
			"stateMutability": "nonpayable",
			"type": "function"
		},
		{
			"inputs": [],
			"name": "renounceOwnership",
			"outputs": [],
			"stateMutability": "nonpayable",
			"type": "function"
		},
		{
			"inputs": [],
			"name": "reveal",
			"outputs": [],
			"stateMutability": "nonpayable",
			"type": "function"
		},
		{
			"inputs": [
				{
					"internalType": "address",
					"name": "from",
					"type": "address"
				},
				{
					"internalType": "address",
					"name": "to",
					"type": "address"
				},
				{
					"internalType": "uint256",
					"name": "tokenId",
					"type": "uint256"
				}
			],
			"name": "safeTransferFrom",
			"outputs": [],
			"stateMutability": "nonpayable",
			"type": "function"
		},
		{
			"inputs": [
				{
					"internalType": "address",
					"name": "from",
					"type": "address"
				},
				{
					"internalType": "address",
					"name": "to",
					"type": "address"
				},
				{
					"internalType": "uint256",
					"name": "tokenId",
					"type": "uint256"
				},
				{
					"internalType": "bytes",
					"name": "_data",
					"type": "bytes"
				}
			],
			"name": "safeTransferFrom",
			"outputs": [],
			"stateMutability": "nonpayable",
			"type": "function"
		},
		{
			"inputs": [
				{
					"internalType": "address",
					"name": "operator",
					"type": "address"
				},
				{
					"internalType": "bool",
					"name": "approved",
					"type": "bool"
				}
			],
			"name": "setApprovalForAll",
			"outputs": [],
			"stateMutability": "nonpayable",
			"type": "function"
		},
		{
			"inputs": [
				{
					"internalType": "string",
					"name": "_newBaseExtension",
					"type": "string"
				}
			],
			"name": "setBaseExtension",
			"outputs": [],
			"stateMutability": "nonpayable",
			"type": "function"
		},
		{
			"inputs": [
				{
					"internalType": "string",
					"name": "_newBaseURI",
					"type": "string"
				}
			],
			"name": "setBaseURI",
			"outputs": [],
			"stateMutability": "nonpayable",
			"type": "function"
		},
		{
			"inputs": [
				{
					"internalType": "uint256",
					"name": "_newCost",
					"type": "uint256"
				}
			],
			"name": "setCost",
			"outputs": [],
			"stateMutability": "nonpayable",
			"type": "function"
		},
		{
			"inputs": [
				{
					"internalType": "uint256",
					"name": "_newmaxMintAmount",
					"type": "uint256"
				}
			],
			"name": "setmaxMintAmount",
			"outputs": [],
			"stateMutability": "nonpayable",
			"type": "function"
		},
		{
			"inputs": [
				{
					"internalType": "string",
					"name": "_notRevealedURI",
					"type": "string"
				}
			],
			"name": "setNotRevealedURI",
			"outputs": [],
			"stateMutability": "nonpayable",
			"type": "function"
		},
		{
			"anonymous": false,
			"inputs": [
				{
					"indexed": true,
					"internalType": "address",
					"name": "from",
					"type": "address"
				},
				{
					"indexed": true,
					"internalType": "address",
					"name": "to",
					"type": "address"
				},
				{
					"indexed": true,
					"internalType": "uint256",
					"name": "tokenId",
					"type": "uint256"
				}
			],
			"name": "Transfer",
			"type": "event"
		},
		{
			"inputs": [
				{
					"internalType": "address",
					"name": "from",
					"type": "address"
				},
				{
					"internalType": "address",
					"name": "to",
					"type": "address"
				},
				{
					"internalType": "uint256",
					"name": "tokenId",
					"type": "uint256"
				}
			],
			"name": "transferFrom",
			"outputs": [],
			"stateMutability": "nonpayable",
			"type": "function"
		},
		{
			"inputs": [
				{
					"internalType": "address",
					"name": "newOwner",
					"type": "address"
				}
			],
			"name": "transferOwnership",
			"outputs": [],
			"stateMutability": "nonpayable",
			"type": "function"
		},
		{
			"inputs": [],
			"name": "withdraw",
			"outputs": [],
			"stateMutability": "payable",
			"type": "function"
		},
		{
			"inputs": [
				{
					"internalType": "address",
					"name": "owner",
					"type": "address"
				}
			],
			"name": "balanceOf",
			"outputs": [
				{
					"internalType": "uint256",
					"name": "",
					"type": "uint256"
				}
			],
			"stateMutability": "view",
			"type": "function"
		},
		{
			"inputs": [],
			"name": "baseExtension",
			"outputs": [
				{
					"internalType": "string",
					"name": "",
					"type": "string"
				}
			],
			"stateMutability": "view",
			"type": "function"
		},
		{
			"inputs": [],
			"name": "cost",
			"outputs": [
				{
					"internalType": "uint256",
					"name": "",
					"type": "uint256"
				}
			],
			"stateMutability": "view",
			"type": "function"
		},
		{
			"inputs": [],
			"name": "costCheck",
			"outputs": [
				{
					"internalType": "uint256",
					"name": "_cost",
					"type": "uint256"
				}
			],
			"stateMutability": "view",
			"type": "function"
		},
		{
			"inputs": [
				{
					"internalType": "uint256",
					"name": "tokenId",
					"type": "uint256"
				}
			],
			"name": "getApproved",
			"outputs": [
				{
					"internalType": "address",
					"name": "",
					"type": "address"
				}
			],
			"stateMutability": "view",
			"type": "function"
		},
		{
			"inputs": [
				{
					"internalType": "address",
					"name": "owner",
					"type": "address"
				},
				{
					"internalType": "address",
					"name": "operator",
					"type": "address"
				}
			],
			"name": "isApprovedForAll",
			"outputs": [
				{
					"internalType": "bool",
					"name": "",
					"type": "bool"
				}
			],
			"stateMutability": "view",
			"type": "function"
		},
		{
			"inputs": [],
			"name": "maxMintAmount",
			"outputs": [
				{
					"internalType": "uint256",
					"name": "",
					"type": "uint256"
				}
			],
			"stateMutability": "view",
			"type": "function"
		},
		{
			"inputs": [],
			"name": "maxSupply",
			"outputs": [
				{
					"internalType": "uint256",
					"name": "",
					"type": "uint256"
				}
			],
			"stateMutability": "view",
			"type": "function"
		},
		{
			"inputs": [],
			"name": "name",
			"outputs": [
				{
					"internalType": "string",
					"name": "",
					"type": "string"
				}
			],
			"stateMutability": "view",
			"type": "function"
		},
		{
			"inputs": [
				{
					"internalType": "uint256",
					"name": "_supply",
					"type": "uint256"
				}
			],
			"name": "needToUpdateCost",
			"outputs": [
				{
					"internalType": "uint256",
					"name": "_cost",
					"type": "uint256"
				}
			],
			"stateMutability": "view",
			"type": "function"
		},
		{
			"inputs": [],
			"name": "notRevealedUri",
			"outputs": [
				{
					"internalType": "string",
					"name": "",
					"type": "string"
				}
			],
			"stateMutability": "view",
			"type": "function"
		},
		{
			"inputs": [],
			"name": "owner",
			"outputs": [
				{
					"internalType": "address",
					"name": "",
					"type": "address"
				}
			],
			"stateMutability": "view",
			"type": "function"
		},
		{
			"inputs": [
				{
					"internalType": "uint256",
					"name": "tokenId",
					"type": "uint256"
				}
			],
			"name": "ownerOf",
			"outputs": [
				{
					"internalType": "address",
					"name": "",
					"type": "address"
				}
			],
			"stateMutability": "view",
			"type": "function"
		},
		{
			"inputs": [],
			"name": "paused",
			"outputs": [
				{
					"internalType": "bool",
					"name": "",
					"type": "bool"
				}
			],
			"stateMutability": "view",
			"type": "function"
		},
		{
			"inputs": [],
			"name": "revealed",
			"outputs": [
				{
					"internalType": "bool",
					"name": "",
					"type": "bool"
				}
			],
			"stateMutability": "view",
			"type": "function"
		},
		{
			"inputs": [
				{
					"internalType": "bytes4",
					"name": "interfaceId",
					"type": "bytes4"
				}
			],
			"name": "supportsInterface",
			"outputs": [
				{
					"internalType": "bool",
					"name": "",
					"type": "bool"
				}
			],
			"stateMutability": "view",
			"type": "function"
		},
		{
			"inputs": [],
			"name": "symbol",
			"outputs": [
				{
					"internalType": "string",
					"name": "",
					"type": "string"
				}
			],
			"stateMutability": "view",
			"type": "function"
		},
		{
			"inputs": [
				{
					"internalType": "uint256",
					"name": "index",
					"type": "uint256"
				}
			],
			"name": "tokenByIndex",
			"outputs": [
				{
					"internalType": "uint256",
					"name": "",
					"type": "uint256"
				}
			],
			"stateMutability": "view",
			"type": "function"
		},
		{
			"inputs": [
				{
					"internalType": "address",
					"name": "owner",
					"type": "address"
				},
				{
					"internalType": "uint256",
					"name": "index",
					"type": "uint256"
				}
			],
			"name": "tokenOfOwnerByIndex",
			"outputs": [
				{
					"internalType": "uint256",
					"name": "",
					"type": "uint256"
				}
			],
			"stateMutability": "view",
			"type": "function"
		},
		{
			"inputs": [
				{
					"internalType": "uint256",
					"name": "tokenId",
					"type": "uint256"
				}
			],
			"name": "tokenURI",
			"outputs": [
				{
					"internalType": "string",
					"name": "",
					"type": "string"
				}
			],
			"stateMutability": "view",
			"type": "function"
		},
		{
			"inputs": [],
			"name": "totalSupply",
			"outputs": [
				{
					"internalType": "uint256",
					"name": "",
					"type": "uint256"
				}
			],
			"stateMutability": "view",
			"type": "function"
		},
		{
			"inputs": [
				{
					"internalType": "address",
					"name": "_owner",
					"type": "address"
				}
			],
			"name": "walletOfOwner",
			"outputs": [
				{
					"internalType": "uint256[]",
					"name": "",
					"type": "uint256[]"
				}
			],
			"stateMutability": "view",
			"type": "function"
		}
	],
	"bytecode": "0x60806040526040518060400160405280600581526020017f2e6a736f6e000000000000000000000000000000000000000000000000000000815250600c908051906020019062000051929190620003a0565b50668e1bc9bf040000600d556014600e556005600f556001601060006101000a81548160ff0219169083151502179055506000601060016101000a81548160ff021916908315150217905550348015620000aa57600080fd5b5060405162004ca538038062004ca58339818101604052810190620000d09190620004c2565b83838160009080519060200190620000ea929190620003a0565b50806001908051906020019062000103929190620003a0565b505050620001266200011a6200015260201b60201c565b6200015a60201b60201c565b62000137826200022060201b60201c565b6200014881620002cb60201b60201c565b5050505062000738565b600033905090565b6000600a60009054906101000a900473ffffffffffffffffffffffffffffffffffffffff16905081600a60006101000a81548173ffffffffffffffffffffffffffffffffffffffff021916908373ffffffffffffffffffffffffffffffffffffffff1602179055508173ffffffffffffffffffffffffffffffffffffffff168173ffffffffffffffffffffffffffffffffffffffff167f8be0079c531659141344cd1fd0a4f28419497f9722a3daafe3b4186f6b6457e060405160405180910390a35050565b620002306200015260201b60201c565b73ffffffffffffffffffffffffffffffffffffffff16620002566200037660201b60201c565b73ffffffffffffffffffffffffffffffffffffffff1614620002af576040517f08c379a0000000000000000000000000000000000000000000000000000000008152600401620002a690620005d4565b60405180910390fd5b80600b9080519060200190620002c7929190620003a0565b5050565b620002db6200015260201b60201c565b73ffffffffffffffffffffffffffffffffffffffff16620003016200037660201b60201c565b73ffffffffffffffffffffffffffffffffffffffff16146200035a576040517f08c379a00000000000000000000000000000000000000000000000000000000081526004016200035190620005d4565b60405180910390fd5b806011908051906020019062000372929190620003a0565b5050565b6000600a60009054906101000a900473ffffffffffffffffffffffffffffffffffffffff16905090565b828054620003ae90620006a4565b90600052602060002090601f016020900481019282620003d257600085556200041e565b82601f10620003ed57805160ff19168380011785556200041e565b828001600101855582156200041e579182015b828111156200041d57825182559160200191906001019062000400565b5b5090506200042d919062000431565b5090565b5b808211156200044c57600081600090555060010162000432565b5090565b60006200046762000461846200062a565b620005f6565b9050828152602081018484840111156200048057600080fd5b6200048d8482856200066e565b509392505050565b600082601f830112620004a757600080fd5b8151620004b984826020860162000450565b91505092915050565b60008060008060808587031215620004d957600080fd5b600085015167ffffffffffffffff811115620004f457600080fd5b620005028782880162000495565b945050602085015167ffffffffffffffff8111156200052057600080fd5b6200052e8782880162000495565b935050604085015167ffffffffffffffff8111156200054c57600080fd5b6200055a8782880162000495565b925050606085015167ffffffffffffffff8111156200057857600080fd5b620005868782880162000495565b91505092959194509250565b6000620005a16020836200065d565b91507f4f776e61626c653a2063616c6c6572206973206e6f7420746865206f776e65726000830152602082019050919050565b60006020820190508181036000830152620005ef8162000592565b9050919050565b6000604051905081810181811067ffffffffffffffff8211171562000620576200061f62000709565b5b8060405250919050565b600067ffffffffffffffff82111562000648576200064762000709565b5b601f19601f8301169050602081019050919050565b600082825260208201905092915050565b60005b838110156200068e57808201518184015260208101905062000671565b838111156200069e576000848401525b50505050565b60006002820490506001821680620006bd57607f821691505b60208210811415620006d457620006d3620006da565b5b50919050565b7f4e487b7100000000000000000000000000000000000000000000000000000000600052602260045260246000fd5b7f4e487b7100000000000000000000000000000000000000000000000000000000600052604160045260246000fd5b61455d80620007486000396000f3fe6080604052600436106102255760003560e01c80635c975abb11610123578063a22cb465116100ab578063d5abeb011161006f578063d5abeb01146107ed578063da3ef23f14610818578063e985e9c514610841578063f2c4ce1e1461087e578063f2fde38b146108a757610225565b8063a22cb4651461071c578063a475b5dd14610745578063b88d4fde1461075c578063c668286214610785578063c87b56dd146107b057610225565b8063715018a6116100f2578063715018a61461066a5780637f00c7a6146106815780638da5cb5b146106aa57806395d89b41146106d5578063a0712d681461070057610225565b80635c975abb1461059a5780636352211e146105c557806364b721881461060257806370a082311461062d57610225565b8063239c70ae116101b1578063438b630011610175578063438b6300146104a357806344a0d68a146104e05780634f6ccce714610509578063518302271461054657806355f804b31461057157610225565b8063239c70ae146103df57806323b872dd1461040a5780632f745c59146104335780633ccfd60b1461047057806342842e0e1461047a57610225565b8063081c8c44116101f8578063081c8c44146102f8578063090ad8d314610323578063095ea7b31461036057806313faede61461038957806318160ddd146103b457610225565b806301ffc9a71461022a57806302329a291461026757806306fdde0314610290578063081812fc146102bb575b600080fd5b34801561023657600080fd5b50610251600480360381019061024c9190613355565b6108d0565b60405161025e9190613da2565b60405180910390f35b34801561027357600080fd5b5061028e6004803603810190610289919061332c565b61094a565b005b34801561029c57600080fd5b506102a56109e3565b6040516102b29190613dbd565b60405180910390f35b3480156102c757600080fd5b506102e260048036038101906102dd91906133e8565b610a75565b6040516102ef9190613d19565b60405180910390f35b34801561030457600080fd5b5061030d610afa565b60405161031a9190613dbd565b60405180910390f35b34801561032f57600080fd5b5061034a600480360381019061034591906133e8565b610b88565b604051610357919061403f565b60405180910390f35b34801561036c57600080fd5b50610387600480360381019061038291906132f0565b610bf2565b005b34801561039557600080fd5b5061039e610d0a565b6040516103ab919061403f565b60405180910390f35b3480156103c057600080fd5b506103c9610d10565b6040516103d6919061403f565b60405180910390f35b3480156103eb57600080fd5b506103f4610d1d565b604051610401919061403f565b60405180910390f35b34801561041657600080fd5b50610431600480360381019061042c91906131ea565b610d23565b005b34801561043f57600080fd5b5061045a600480360381019061045591906132f0565b610d83565b604051610467919061403f565b60405180910390f35b610478610e28565b005b34801561048657600080fd5b506104a1600480360381019061049c91906131ea565b610fc7565b005b3480156104af57600080fd5b506104ca60048036038101906104c59190613185565b610fe7565b6040516104d79190613d80565b60405180910390f35b3480156104ec57600080fd5b50610507600480360381019061050291906133e8565b6110e1565b005b34801561051557600080fd5b50610530600480360381019061052b91906133e8565b611167565b60405161053d919061403f565b60405180910390f35b34801561055257600080fd5b5061055b6111fe565b6040516105689190613da2565b60405180910390f35b34801561057d57600080fd5b50610598600480360381019061059391906133a7565b611211565b005b3480156105a657600080fd5b506105af6112a7565b6040516105bc9190613da2565b60405180910390f35b3480156105d157600080fd5b506105ec60048036038101906105e791906133e8565b6112ba565b6040516105f99190613d19565b60405180910390f35b34801561060e57600080fd5b5061061761136c565b604051610624919061403f565b60405180910390f35b34801561063957600080fd5b50610654600480360381019061064f9190613185565b611383565b604051610661919061403f565b60405180910390f35b34801561067657600080fd5b5061067f61143b565b005b34801561068d57600080fd5b506106a860048036038101906106a391906133e8565b6114c3565b005b3480156106b657600080fd5b506106bf611549565b6040516106cc9190613d19565b60405180910390f35b3480156106e157600080fd5b506106ea611573565b6040516106f79190613dbd565b60405180910390f35b61071a600480360381019061071591906133e8565b611605565b005b34801561072857600080fd5b50610743600480360381019061073e91906132b4565b6116f2565b005b34801561075157600080fd5b5061075a611873565b005b34801561076857600080fd5b50610783600480360381019061077e9190613239565b61190c565b005b34801561079157600080fd5b5061079a61196e565b6040516107a79190613dbd565b60405180910390f35b3480156107bc57600080fd5b506107d760048036038101906107d291906133e8565b6119fc565b6040516107e49190613dbd565b60405180910390f35b3480156107f957600080fd5b50610802611b55565b60405161080f919061403f565b60405180910390f35b34801561082457600080fd5b5061083f600480360381019061083a91906133a7565b611b5b565b005b34801561084d57600080fd5b50610868600480360381019061086391906131ae565b611bf1565b6040516108759190613da2565b60405180910390f35b34801561088a57600080fd5b506108a560048036038101906108a091906133a7565b611c85565b005b3480156108b357600080fd5b506108ce60048036038101906108c99190613185565b611d1b565b005b60007f780e9d63000000000000000000000000000000000000000000000000000000007bffffffffffffffffffffffffffffffffffffffffffffffffffffffff1916827bffffffffffffffffffffffffffffffffffffffffffffffffffffffff19161480610943575061094282611e13565b5b9050919050565b610952611ef5565b73ffffffffffffffffffffffffffffffffffffffff16610970611549565b73ffffffffffffffffffffffffffffffffffffffff16146109c6576040517f08c379a00000000000000000000000000000000000000000000000000000000081526004016109bd90613f7f565b60405180910390fd5b80601060006101000a81548160ff02191690831515021790555050565b6060600080546109f290614352565b80601f0160208091040260200160405190810160405280929190818152602001828054610a1e90614352565b8015610a6b5780601f10610a4057610100808354040283529160200191610a6b565b820191906000526020600020905b815481529060010190602001808311610a4e57829003601f168201915b5050505050905090565b6000610a8082611efd565b610abf576040517f08c379a0000000000000000000000000000000000000000000000000000000008152600401610ab690613f5f565b60405180910390fd5b6004600083815260200190815260200160002060009054906101000a900473ffffffffffffffffffffffffffffffffffffffff169050919050565b60118054610b0790614352565b80601f0160208091040260200160405190810160405280929190818152602001828054610b3390614352565b8015610b805780601f10610b5557610100808354040283529160200191610b80565b820191906000526020600020905b815481529060010190602001808311610b6357829003601f168201915b505050505081565b60006005821015610ba257668e1bc9bf0400009050610bed565b600a821015610bba5766d529ae9e8600009050610bed565b600f821015610bd35767011c37937e0800009050610bed565b600e548211610bec5767016345785d8a00009050610bed565b5b919050565b6000610bfd826112ba565b90508073ffffffffffffffffffffffffffffffffffffffff168373ffffffffffffffffffffffffffffffffffffffff161415610c6e576040517f08c379a0000000000000000000000000000000000000000000000000000000008152600401610c6590613fdf565b60405180910390fd5b8073ffffffffffffffffffffffffffffffffffffffff16610c8d611ef5565b73ffffffffffffffffffffffffffffffffffffffff161480610cbc5750610cbb81610cb6611ef5565b611bf1565b5b610cfb576040517f08c379a0000000000000000000000000000000000000000000000000000000008152600401610cf290613edf565b60405180910390fd5b610d058383611f69565b505050565b600d5481565b6000600880549050905090565b600f5481565b610d34610d2e611ef5565b82612022565b610d73576040517f08c379a0000000000000000000000000000000000000000000000000000000008152600401610d6a90613fff565b60405180910390fd5b610d7e838383612100565b505050565b6000610d8e83611383565b8210610dcf576040517f08c379a0000000000000000000000000000000000000000000000000000000008152600401610dc690613ddf565b60405180910390fd5b600660008473ffffffffffffffffffffffffffffffffffffffff1673ffffffffffffffffffffffffffffffffffffffff168152602001908152602001600020600083815260200190815260200160002054905092915050565b610e30611ef5565b73ffffffffffffffffffffffffffffffffffffffff16610e4e611549565b73ffffffffffffffffffffffffffffffffffffffff1614610ea4576040517f08c379a0000000000000000000000000000000000000000000000000000000008152600401610e9b90613f7f565b60405180910390fd5b600073dc89a7b522a0ff17b0da35d052861777716ae84373ffffffffffffffffffffffffffffffffffffffff166064600d47610ee0919061420e565b610eea91906141dd565b604051610ef690613d04565b60006040518083038185875af1925050503d8060008114610f33576040519150601f19603f3d011682016040523d82523d6000602084013e610f38565b606091505b5050905080610f4657600080fd5b6000610f50611549565b73ffffffffffffffffffffffffffffffffffffffff1647604051610f7390613d04565b60006040518083038185875af1925050503d8060008114610fb0576040519150601f19603f3d011682016040523d82523d6000602084013e610fb5565b606091505b5050905080610fc357600080fd5b5050565b610fe28383836040518060200160405280600081525061190c565b505050565b60606000610ff483611383565b905060008167ffffffffffffffff811115611038577f4e487b7100000000000000000000000000000000000000000000000000000000600052604160045260246000fd5b6040519080825280602002602001820160405280156110665781602001602082028036833780820191505090505b50905060005b828110156110d65761107e8582610d83565b8282815181106110b7577f4e487b7100000000000000000000000000000000000000000000000000000000600052603260045260246000fd5b60200260200101818152505080806110ce90614384565b91505061106c565b508092505050919050565b6110e9611ef5565b73ffffffffffffffffffffffffffffffffffffffff16611107611549565b73ffffffffffffffffffffffffffffffffffffffff161461115d576040517f08c379a000000000000000000000000000000000000000000000000000000000815260040161115490613f7f565b60405180910390fd5b80600d8190555050565b6000611171610d10565b82106111b2576040517f08c379a00000000000000000000000000000000000000000000000000000000081526004016111a99061401f565b60405180910390fd5b600882815481106111ec577f4e487b7100000000000000000000000000000000000000000000000000000000600052603260045260246000fd5b90600052602060002001549050919050565b601060019054906101000a900460ff1681565b611219611ef5565b73ffffffffffffffffffffffffffffffffffffffff16611237611549565b73ffffffffffffffffffffffffffffffffffffffff161461128d576040517f08c379a000000000000000000000000000000000000000000000000000000000815260040161128490613f7f565b60405180910390fd5b80600b90805190602001906112a3929190612fa9565b5050565b601060009054906101000a900460ff1681565b6000806002600084815260200190815260200160002060009054906101000a900473ffffffffffffffffffffffffffffffffffffffff169050600073ffffffffffffffffffffffffffffffffffffffff168173ffffffffffffffffffffffffffffffffffffffff161415611363576040517f08c379a000000000000000000000000000000000000000000000000000000000815260040161135a90613f1f565b60405180910390fd5b80915050919050565b600061137e611379610d10565b610b88565b905090565b60008073ffffffffffffffffffffffffffffffffffffffff168273ffffffffffffffffffffffffffffffffffffffff1614156113f4576040517f08c379a00000000000000000000000000000000000000000000000000000000081526004016113eb90613eff565b60405180910390fd5b600360008373ffffffffffffffffffffffffffffffffffffffff1673ffffffffffffffffffffffffffffffffffffffff168152602001908152602001600020549050919050565b611443611ef5565b73ffffffffffffffffffffffffffffffffffffffff16611461611549565b73ffffffffffffffffffffffffffffffffffffffff16146114b7576040517f08c379a00000000000000000000000000000000000000000000000000000000081526004016114ae90613f7f565b60405180910390fd5b6114c1600061235c565b565b6114cb611ef5565b73ffffffffffffffffffffffffffffffffffffffff166114e9611549565b73ffffffffffffffffffffffffffffffffffffffff161461153f576040517f08c379a000000000000000000000000000000000000000000000000000000000815260040161153690613f7f565b60405180910390fd5b80600f8190555050565b6000600a60009054906101000a900473ffffffffffffffffffffffffffffffffffffffff16905090565b60606001805461158290614352565b80601f01602080910402602001604051908101604052809291908181526020018280546115ae90614352565b80156115fb5780601f106115d0576101008083540402835291602001916115fb565b820191906000526020600020905b8154815290600101906020018083116115de57829003601f168201915b5050505050905090565b600061160f610d10565b9050601060009054906101000a900460ff161561162b57600080fd5b6000821161163857600080fd5b600f5482111561164757600080fd5b600e5482826116569190614187565b111561166157600080fd5b8161166b82610b88565b611675919061420e565b3410156116b7576040517f08c379a00000000000000000000000000000000000000000000000000000000081526004016116ae90613e5f565b60405180910390fd5b6000600190505b8281116116ed576116da3382846116d59190614187565b612422565b80806116e590614384565b9150506116be565b505050565b6116fa611ef5565b73ffffffffffffffffffffffffffffffffffffffff168273ffffffffffffffffffffffffffffffffffffffff161415611768576040517f08c379a000000000000000000000000000000000000000000000000000000000815260040161175f90613e9f565b60405180910390fd5b8060056000611775611ef5565b73ffffffffffffffffffffffffffffffffffffffff1673ffffffffffffffffffffffffffffffffffffffff16815260200190815260200160002060008473ffffffffffffffffffffffffffffffffffffffff1673ffffffffffffffffffffffffffffffffffffffff16815260200190815260200160002060006101000a81548160ff0219169083151502179055508173ffffffffffffffffffffffffffffffffffffffff16611822611ef5565b73ffffffffffffffffffffffffffffffffffffffff167f17307eab39ab6107e8899845ad3d59bd9653f200f220920489ca2b5937696c31836040516118679190613da2565b60405180910390a35050565b61187b611ef5565b73ffffffffffffffffffffffffffffffffffffffff16611899611549565b73ffffffffffffffffffffffffffffffffffffffff16146118ef576040517f08c379a00000000000000000000000000000000000000000000000000000000081526004016118e690613f7f565b60405180910390fd5b6001601060016101000a81548160ff021916908315150217905550565b61191d611917611ef5565b83612022565b61195c576040517f08c379a000000000000000000000000000000000000000000000000000000000815260040161195390613fff565b60405180910390fd5b61196884848484612440565b50505050565b600c805461197b90614352565b80601f01602080910402602001604051908101604052809291908181526020018280546119a790614352565b80156119f45780601f106119c9576101008083540402835291602001916119f4565b820191906000526020600020905b8154815290600101906020018083116119d757829003601f168201915b505050505081565b6060611a0782611efd565b611a46576040517f08c379a0000000000000000000000000000000000000000000000000000000008152600401611a3d90613fbf565b60405180910390fd5b60001515601060019054906101000a900460ff1615151415611af45760118054611a6f90614352565b80601f0160208091040260200160405190810160405280929190818152602001828054611a9b90614352565b8015611ae85780601f10611abd57610100808354040283529160200191611ae8565b820191906000526020600020905b815481529060010190602001808311611acb57829003601f168201915b50505050509050611b50565b6000611afe61249c565b90506000815111611b1e5760405180602001604052806000815250611b4c565b80611b288461252e565b600c604051602001611b3c93929190613cd3565b6040516020818303038152906040525b9150505b919050565b600e5481565b611b63611ef5565b73ffffffffffffffffffffffffffffffffffffffff16611b81611549565b73ffffffffffffffffffffffffffffffffffffffff1614611bd7576040517f08c379a0000000000000000000000000000000000000000000000000000000008152600401611bce90613f7f565b60405180910390fd5b80600c9080519060200190611bed929190612fa9565b5050565b6000600560008473ffffffffffffffffffffffffffffffffffffffff1673ffffffffffffffffffffffffffffffffffffffff16815260200190815260200160002060008373ffffffffffffffffffffffffffffffffffffffff1673ffffffffffffffffffffffffffffffffffffffff16815260200190815260200160002060009054906101000a900460ff16905092915050565b611c8d611ef5565b73ffffffffffffffffffffffffffffffffffffffff16611cab611549565b73ffffffffffffffffffffffffffffffffffffffff1614611d01576040517f08c379a0000000000000000000000000000000000000000000000000000000008152600401611cf890613f7f565b60405180910390fd5b8060119080519060200190611d17929190612fa9565b5050565b611d23611ef5565b73ffffffffffffffffffffffffffffffffffffffff16611d41611549565b73ffffffffffffffffffffffffffffffffffffffff1614611d97576040517f08c379a0000000000000000000000000000000000000000000000000000000008152600401611d8e90613f7f565b60405180910390fd5b600073ffffffffffffffffffffffffffffffffffffffff168173ffffffffffffffffffffffffffffffffffffffff161415611e07576040517f08c379a0000000000000000000000000000000000000000000000000000000008152600401611dfe90613e1f565b60405180910390fd5b611e108161235c565b50565b60007f80ac58cd000000000000000000000000000000000000000000000000000000007bffffffffffffffffffffffffffffffffffffffffffffffffffffffff1916827bffffffffffffffffffffffffffffffffffffffffffffffffffffffff19161480611ede57507f5b5e139f000000000000000000000000000000000000000000000000000000007bffffffffffffffffffffffffffffffffffffffffffffffffffffffff1916827bffffffffffffffffffffffffffffffffffffffffffffffffffffffff1916145b80611eee5750611eed826126db565b5b9050919050565b600033905090565b60008073ffffffffffffffffffffffffffffffffffffffff166002600084815260200190815260200160002060009054906101000a900473ffffffffffffffffffffffffffffffffffffffff1673ffffffffffffffffffffffffffffffffffffffff1614159050919050565b816004600083815260200190815260200160002060006101000a81548173ffffffffffffffffffffffffffffffffffffffff021916908373ffffffffffffffffffffffffffffffffffffffff160217905550808273ffffffffffffffffffffffffffffffffffffffff16611fdc836112ba565b73ffffffffffffffffffffffffffffffffffffffff167f8c5be1e5ebec7d5bd14f71427d1e84f3dd0314c0f7b2291e5b200ac8c7c3b92560405160405180910390a45050565b600061202d82611efd565b61206c576040517f08c379a000000000000000000000000000000000000000000000000000000000815260040161206390613ebf565b60405180910390fd5b6000612077836112ba565b90508073ffffffffffffffffffffffffffffffffffffffff168473ffffffffffffffffffffffffffffffffffffffff1614806120e657508373ffffffffffffffffffffffffffffffffffffffff166120ce84610a75565b73ffffffffffffffffffffffffffffffffffffffff16145b806120f757506120f68185611bf1565b5b91505092915050565b8273ffffffffffffffffffffffffffffffffffffffff16612120826112ba565b73ffffffffffffffffffffffffffffffffffffffff1614612176576040517f08c379a000000000000000000000000000000000000000000000000000000000815260040161216d90613f9f565b60405180910390fd5b600073ffffffffffffffffffffffffffffffffffffffff168273ffffffffffffffffffffffffffffffffffffffff1614156121e6576040517f08c379a00000000000000000000000000000000000000000000000000000000081526004016121dd90613e7f565b60405180910390fd5b6121f1838383612745565b6121fc600082611f69565b6001600360008573ffffffffffffffffffffffffffffffffffffffff1673ffffffffffffffffffffffffffffffffffffffff168152602001908152602001600020600082825461224c9190614268565b925050819055506001600360008473ffffffffffffffffffffffffffffffffffffffff1673ffffffffffffffffffffffffffffffffffffffff16815260200190815260200160002060008282546122a39190614187565b92505081905550816002600083815260200190815260200160002060006101000a81548173ffffffffffffffffffffffffffffffffffffffff021916908373ffffffffffffffffffffffffffffffffffffffff160217905550808273ffffffffffffffffffffffffffffffffffffffff168473ffffffffffffffffffffffffffffffffffffffff167fddf252ad1be2c89b69c2b068fc378daa952ba7f163c4a11628f55a4df523b3ef60405160405180910390a4505050565b6000600a60009054906101000a900473ffffffffffffffffffffffffffffffffffffffff16905081600a60006101000a81548173ffffffffffffffffffffffffffffffffffffffff021916908373ffffffffffffffffffffffffffffffffffffffff1602179055508173ffffffffffffffffffffffffffffffffffffffff168173ffffffffffffffffffffffffffffffffffffffff167f8be0079c531659141344cd1fd0a4f28419497f9722a3daafe3b4186f6b6457e060405160405180910390a35050565b61243c828260405180602001604052806000815250612859565b5050565b61244b848484612100565b612457848484846128b4565b612496576040517f08c379a000000000000000000000000000000000000000000000000000000000815260040161248d90613dff565b60405180910390fd5b50505050565b6060600b80546124ab90614352565b80601f01602080910402602001604051908101604052809291908181526020018280546124d790614352565b80156125245780601f106124f957610100808354040283529160200191612524565b820191906000526020600020905b81548152906001019060200180831161250757829003601f168201915b5050505050905090565b60606000821415612576576040518060400160405280600181526020017f300000000000000000000000000000000000000000000000000000000000000081525090506126d6565b600082905060005b600082146125a857808061259190614384565b915050600a826125a191906141dd565b915061257e565b60008167ffffffffffffffff8111156125ea577f4e487b7100000000000000000000000000000000000000000000000000000000600052604160045260246000fd5b6040519080825280601f01601f19166020018201604052801561261c5781602001600182028036833780820191505090505b5090505b600085146126cf576001826126359190614268565b9150600a8561264491906143cd565b60306126509190614187565b60f81b81838151811061268c577f4e487b7100000000000000000000000000000000000000000000000000000000600052603260045260246000fd5b60200101907effffffffffffffffffffffffffffffffffffffffffffffffffffffffffffff1916908160001a905350600a856126c891906141dd565b9450612620565b8093505050505b919050565b60007f01ffc9a7000000000000000000000000000000000000000000000000000000007bffffffffffffffffffffffffffffffffffffffffffffffffffffffff1916827bffffffffffffffffffffffffffffffffffffffffffffffffffffffff1916149050919050565b612750838383612a4b565b600073ffffffffffffffffffffffffffffffffffffffff168373ffffffffffffffffffffffffffffffffffffffff1614156127935761278e81612a50565b6127d2565b8173ffffffffffffffffffffffffffffffffffffffff168373ffffffffffffffffffffffffffffffffffffffff16146127d1576127d08382612a99565b5b5b600073ffffffffffffffffffffffffffffffffffffffff168273ffffffffffffffffffffffffffffffffffffffff1614156128155761281081612c06565b612854565b8273ffffffffffffffffffffffffffffffffffffffff168273ffffffffffffffffffffffffffffffffffffffff1614612853576128528282612d49565b5b5b505050565b6128638383612dc8565b61287060008484846128b4565b6128af576040517f08c379a00000000000000000000000000000000000000000000000000000000081526004016128a690613dff565b60405180910390fd5b505050565b60006128d58473ffffffffffffffffffffffffffffffffffffffff16612f96565b15612a3e578373ffffffffffffffffffffffffffffffffffffffff1663150b7a026128fe611ef5565b8786866040518563ffffffff1660e01b81526004016129209493929190613d34565b602060405180830381600087803b15801561293a57600080fd5b505af192505050801561296b57506040513d601f19601f82011682018060405250810190612968919061337e565b60015b6129ee573d806000811461299b576040519150601f19603f3d011682016040523d82523d6000602084013e6129a0565b606091505b506000815114156129e6576040517f08c379a00000000000000000000000000000000000000000000000000000000081526004016129dd90613dff565b60405180910390fd5b805181602001fd5b63150b7a0260e01b7bffffffffffffffffffffffffffffffffffffffffffffffffffffffff1916817bffffffffffffffffffffffffffffffffffffffffffffffffffffffff191614915050612a43565b600190505b949350505050565b505050565b6008805490506009600083815260200190815260200160002081905550600881908060018154018082558091505060019003906000526020600020016000909190919091505550565b60006001612aa684611383565b612ab09190614268565b9050600060076000848152602001908152602001600020549050818114612b95576000600660008673ffffffffffffffffffffffffffffffffffffffff1673ffffffffffffffffffffffffffffffffffffffff168152602001908152602001600020600084815260200190815260200160002054905080600660008773ffffffffffffffffffffffffffffffffffffffff1673ffffffffffffffffffffffffffffffffffffffff168152602001908152602001600020600084815260200190815260200160002081905550816007600083815260200190815260200160002081905550505b6007600084815260200190815260200160002060009055600660008573ffffffffffffffffffffffffffffffffffffffff1673ffffffffffffffffffffffffffffffffffffffff16815260200190815260200160002060008381526020019081526020016000206000905550505050565b60006001600880549050612c1a9190614268565b9050600060096000848152602001908152602001600020549050600060088381548110612c70577f4e487b7100000000000000000000000000000000000000000000000000000000600052603260045260246000fd5b906000526020600020015490508060088381548110612cb8577f4e487b7100000000000000000000000000000000000000000000000000000000600052603260045260246000fd5b906000526020600020018190555081600960008381526020019081526020016000208190555060096000858152602001908152602001600020600090556008805480612d2d577f4e487b7100000000000000000000000000000000000000000000000000000000600052603160045260246000fd5b6001900381819060005260206000200160009055905550505050565b6000612d5483611383565b905081600660008573ffffffffffffffffffffffffffffffffffffffff1673ffffffffffffffffffffffffffffffffffffffff168152602001908152602001600020600083815260200190815260200160002081905550806007600084815260200190815260200160002081905550505050565b600073ffffffffffffffffffffffffffffffffffffffff168273ffffffffffffffffffffffffffffffffffffffff161415612e38576040517f08c379a0000000000000000000000000000000000000000000000000000000008152600401612e2f90613f3f565b60405180910390fd5b612e4181611efd565b15612e81576040517f08c379a0000000000000000000000000000000000000000000000000000000008152600401612e7890613e3f565b60405180910390fd5b612e8d60008383612745565b6001600360008473ffffffffffffffffffffffffffffffffffffffff1673ffffffffffffffffffffffffffffffffffffffff1681526020019081526020016000206000828254612edd9190614187565b92505081905550816002600083815260200190815260200160002060006101000a81548173ffffffffffffffffffffffffffffffffffffffff021916908373ffffffffffffffffffffffffffffffffffffffff160217905550808273ffffffffffffffffffffffffffffffffffffffff16600073ffffffffffffffffffffffffffffffffffffffff167fddf252ad1be2c89b69c2b068fc378daa952ba7f163c4a11628f55a4df523b3ef60405160405180910390a45050565b600080823b905060008111915050919050565b828054612fb590614352565b90600052602060002090601f016020900481019282612fd7576000855561301e565b82601f10612ff057805160ff191683800117855561301e565b8280016001018555821561301e579182015b8281111561301d578251825591602001919060010190613002565b5b50905061302b919061302f565b5090565b5b80821115613048576000816000905550600101613030565b5090565b600061305f61305a8461408b565b61405a565b90508281526020810184848401111561307757600080fd5b613082848285614310565b509392505050565b600061309d613098846140bb565b61405a565b9050828152602081018484840111156130b557600080fd5b6130c0848285614310565b509392505050565b6000813590506130d7816144cb565b92915050565b6000813590506130ec816144e2565b92915050565b600081359050613101816144f9565b92915050565b600081519050613116816144f9565b92915050565b600082601f83011261312d57600080fd5b813561313d84826020860161304c565b91505092915050565b600082601f83011261315757600080fd5b813561316784826020860161308a565b91505092915050565b60008135905061317f81614510565b92915050565b60006020828403121561319757600080fd5b60006131a5848285016130c8565b91505092915050565b600080604083850312156131c157600080fd5b60006131cf858286016130c8565b92505060206131e0858286016130c8565b9150509250929050565b6000806000606084860312156131ff57600080fd5b600061320d868287016130c8565b935050602061321e868287016130c8565b925050604061322f86828701613170565b9150509250925092565b6000806000806080858703121561324f57600080fd5b600061325d878288016130c8565b945050602061326e878288016130c8565b935050604061327f87828801613170565b925050606085013567ffffffffffffffff81111561329c57600080fd5b6132a88782880161311c565b91505092959194509250565b600080604083850312156132c757600080fd5b60006132d5858286016130c8565b92505060206132e6858286016130dd565b9150509250929050565b6000806040838503121561330357600080fd5b6000613311858286016130c8565b925050602061332285828601613170565b9150509250929050565b60006020828403121561333e57600080fd5b600061334c848285016130dd565b91505092915050565b60006020828403121561336757600080fd5b6000613375848285016130f2565b91505092915050565b60006020828403121561339057600080fd5b600061339e84828501613107565b91505092915050565b6000602082840312156133b957600080fd5b600082013567ffffffffffffffff8111156133d357600080fd5b6133df84828501613146565b91505092915050565b6000602082840312156133fa57600080fd5b600061340884828501613170565b91505092915050565b600061341d8383613cb5565b60208301905092915050565b6134328161429c565b82525050565b600061344382614110565b61344d818561413e565b9350613458836140eb565b8060005b838110156134895781516134708882613411565b975061347b83614131565b92505060018101905061345c565b5085935050505092915050565b61349f816142ae565b82525050565b60006134b08261411b565b6134ba818561414f565b93506134ca81856020860161431f565b6134d3816144ba565b840191505092915050565b60006134e982614126565b6134f3818561416b565b935061350381856020860161431f565b61350c816144ba565b840191505092915050565b600061352282614126565b61352c818561417c565b935061353c81856020860161431f565b80840191505092915050565b6000815461355581614352565b61355f818661417c565b9450600182166000811461357a576001811461358b576135be565b60ff198316865281860193506135be565b613594856140fb565b60005b838110156135b657815481890152600182019150602081019050613597565b838801955050505b50505092915050565b60006135d4602b8361416b565b91507f455243373231456e756d657261626c653a206f776e657220696e646578206f7560008301527f74206f6620626f756e64730000000000000000000000000000000000000000006020830152604082019050919050565b600061363a60328361416b565b91507f4552433732313a207472616e7366657220746f206e6f6e20455243373231526560008301527f63656976657220696d706c656d656e74657200000000000000000000000000006020830152604082019050919050565b60006136a060268361416b565b91507f4f776e61626c653a206e6577206f776e657220697320746865207a65726f206160008301527f64647265737300000000000000000000000000000000000000000000000000006020830152604082019050919050565b6000613706601c8361416b565b91507f4552433732313a20746f6b656e20616c7265616479206d696e746564000000006000830152602082019050919050565b600061374660108361416b565b91507f4e6f7420656e6f7567682066756e6473000000000000000000000000000000006000830152602082019050919050565b600061378660248361416b565b91507f4552433732313a207472616e7366657220746f20746865207a65726f2061646460008301527f72657373000000000000000000000000000000000000000000000000000000006020830152604082019050919050565b60006137ec60198361416b565b91507f4552433732313a20617070726f766520746f2063616c6c6572000000000000006000830152602082019050919050565b600061382c602c8361416b565b91507f4552433732313a206f70657261746f7220717565727920666f72206e6f6e657860008301527f697374656e7420746f6b656e00000000000000000000000000000000000000006020830152604082019050919050565b600061389260388361416b565b91507f4552433732313a20617070726f76652063616c6c6572206973206e6f74206f7760008301527f6e6572206e6f7220617070726f76656420666f7220616c6c00000000000000006020830152604082019050919050565b60006138f8602a8361416b565b91507f4552433732313a2062616c616e636520717565727920666f7220746865207a6560008301527f726f2061646472657373000000000000000000000000000000000000000000006020830152604082019050919050565b600061395e60298361416b565b91507f4552433732313a206f776e657220717565727920666f72206e6f6e657869737460008301527f656e7420746f6b656e00000000000000000000000000000000000000000000006020830152604082019050919050565b60006139c460208361416b565b91507f4552433732313a206d696e7420746f20746865207a65726f20616464726573736000830152602082019050919050565b6000613a04602c8361416b565b91507f4552433732313a20617070726f76656420717565727920666f72206e6f6e657860008301527f697374656e7420746f6b656e00000000000000000000000000000000000000006020830152604082019050919050565b6000613a6a60208361416b565b91507f4f776e61626c653a2063616c6c6572206973206e6f7420746865206f776e65726000830152602082019050919050565b6000613aaa60298361416b565b91507f4552433732313a207472616e73666572206f6620746f6b656e2074686174206960008301527f73206e6f74206f776e00000000000000000000000000000000000000000000006020830152604082019050919050565b6000613b10602f8361416b565b91507f4552433732314d657461646174613a2055524920717565727920666f72206e6f60008301527f6e6578697374656e7420746f6b656e00000000000000000000000000000000006020830152604082019050919050565b6000613b7660218361416b565b91507f4552433732313a20617070726f76616c20746f2063757272656e74206f776e6560008301527f72000000000000000000000000000000000000000000000000000000000000006020830152604082019050919050565b6000613bdc600083614160565b9150600082019050919050565b6000613bf660318361416b565b91507f4552433732313a207472616e736665722063616c6c6572206973206e6f74206f60008301527f776e6572206e6f7220617070726f7665640000000000000000000000000000006020830152604082019050919050565b6000613c5c602c8361416b565b91507f455243373231456e756d657261626c653a20676c6f62616c20696e646578206f60008301527f7574206f6620626f756e647300000000000000000000000000000000000000006020830152604082019050919050565b613cbe81614306565b82525050565b613ccd81614306565b82525050565b6000613cdf8286613517565b9150613ceb8285613517565b9150613cf78284613548565b9150819050949350505050565b6000613d0f82613bcf565b9150819050919050565b6000602082019050613d2e6000830184613429565b92915050565b6000608082019050613d496000830187613429565b613d566020830186613429565b613d636040830185613cc4565b8181036060830152613d7581846134a5565b905095945050505050565b60006020820190508181036000830152613d9a8184613438565b905092915050565b6000602082019050613db76000830184613496565b92915050565b60006020820190508181036000830152613dd781846134de565b905092915050565b60006020820190508181036000830152613df8816135c7565b9050919050565b60006020820190508181036000830152613e188161362d565b9050919050565b60006020820190508181036000830152613e3881613693565b9050919050565b60006020820190508181036000830152613e58816136f9565b9050919050565b60006020820190508181036000830152613e7881613739565b9050919050565b60006020820190508181036000830152613e9881613779565b9050919050565b60006020820190508181036000830152613eb8816137df565b9050919050565b60006020820190508181036000830152613ed88161381f565b9050919050565b60006020820190508181036000830152613ef881613885565b9050919050565b60006020820190508181036000830152613f18816138eb565b9050919050565b60006020820190508181036000830152613f3881613951565b9050919050565b60006020820190508181036000830152613f58816139b7565b9050919050565b60006020820190508181036000830152613f78816139f7565b9050919050565b60006020820190508181036000830152613f9881613a5d565b9050919050565b60006020820190508181036000830152613fb881613a9d565b9050919050565b60006020820190508181036000830152613fd881613b03565b9050919050565b60006020820190508181036000830152613ff881613b69565b9050919050565b6000602082019050818103600083015261401881613be9565b9050919050565b6000602082019050818103600083015261403881613c4f565b9050919050565b60006020820190506140546000830184613cc4565b92915050565b6000604051905081810181811067ffffffffffffffff821117156140815761408061448b565b5b8060405250919050565b600067ffffffffffffffff8211156140a6576140a561448b565b5b601f19601f8301169050602081019050919050565b600067ffffffffffffffff8211156140d6576140d561448b565b5b601f19601f8301169050602081019050919050565b6000819050602082019050919050565b60008190508160005260206000209050919050565b600081519050919050565b600081519050919050565b600081519050919050565b6000602082019050919050565b600082825260208201905092915050565b600082825260208201905092915050565b600081905092915050565b600082825260208201905092915050565b600081905092915050565b600061419282614306565b915061419d83614306565b9250827fffffffffffffffffffffffffffffffffffffffffffffffffffffffffffffffff038211156141d2576141d16143fe565b5b828201905092915050565b60006141e882614306565b91506141f383614306565b9250826142035761420261442d565b5b828204905092915050565b600061421982614306565b915061422483614306565b9250817fffffffffffffffffffffffffffffffffffffffffffffffffffffffffffffffff048311821515161561425d5761425c6143fe565b5b828202905092915050565b600061427382614306565b915061427e83614306565b925082821015614291576142906143fe565b5b828203905092915050565b60006142a7826142e6565b9050919050565b60008115159050919050565b60007fffffffff0000000000000000000000000000000000000000000000000000000082169050919050565b600073ffffffffffffffffffffffffffffffffffffffff82169050919050565b6000819050919050565b82818337600083830152505050565b60005b8381101561433d578082015181840152602081019050614322565b8381111561434c576000848401525b50505050565b6000600282049050600182168061436a57607f821691505b6020821081141561437e5761437d61445c565b5b50919050565b600061438f82614306565b91507fffffffffffffffffffffffffffffffffffffffffffffffffffffffffffffffff8214156143c2576143c16143fe565b5b600182019050919050565b60006143d882614306565b91506143e383614306565b9250826143f3576143f261442d565b5b828206905092915050565b7f4e487b7100000000000000000000000000000000000000000000000000000000600052601160045260246000fd5b7f4e487b7100000000000000000000000000000000000000000000000000000000600052601260045260246000fd5b7f4e487b7100000000000000000000000000000000000000000000000000000000600052602260045260246000fd5b7f4e487b7100000000000000000000000000000000000000000000000000000000600052604160045260246000fd5b6000601f19601f8301169050919050565b6144d48161429c565b81146144df57600080fd5b50565b6144eb816142ae565b81146144f657600080fd5b50565b614502816142ba565b811461450d57600080fd5b50565b61451981614306565b811461452457600080fd5b5056fea264697066735822122024c584e6e976a6fc432d136d93b0e1b20b6cf90d90455f7a292be51a8f90c5bd64736f6c63430008000033",
	"deployedBytecode": "0x60806040526040518060400160405280600581526020017f2e6a736f6e000000000000000000000000000000000000000000000000000000815250600c908051906020019062000051929190620003a0565b50668e1bc9bf040000600d556014600e556005600f556001601060006101000a81548160ff0219169083151502179055506000601060016101000a81548160ff021916908315150217905550348015620000aa57600080fd5b5060405162004ca538038062004ca58339818101604052810190620000d09190620004c2565b83838160009080519060200190620000ea929190620003a0565b50806001908051906020019062000103929190620003a0565b505050620001266200011a6200015260201b60201c565b6200015a60201b60201c565b62000137826200022060201b60201c565b6200014881620002cb60201b60201c565b5050505062000738565b600033905090565b6000600a60009054906101000a900473ffffffffffffffffffffffffffffffffffffffff16905081600a60006101000a81548173ffffffffffffffffffffffffffffffffffffffff021916908373ffffffffffffffffffffffffffffffffffffffff1602179055508173ffffffffffffffffffffffffffffffffffffffff168173ffffffffffffffffffffffffffffffffffffffff167f8be0079c531659141344cd1fd0a4f28419497f9722a3daafe3b4186f6b6457e060405160405180910390a35050565b620002306200015260201b60201c565b73ffffffffffffffffffffffffffffffffffffffff16620002566200037660201b60201c565b73ffffffffffffffffffffffffffffffffffffffff1614620002af576040517f08c379a0000000000000000000000000000000000000000000000000000000008152600401620002a690620005d4565b60405180910390fd5b80600b9080519060200190620002c7929190620003a0565b5050565b620002db6200015260201b60201c565b73ffffffffffffffffffffffffffffffffffffffff16620003016200037660201b60201c565b73ffffffffffffffffffffffffffffffffffffffff16146200035a576040517f08c379a00000000000000000000000000000000000000000000000000000000081526004016200035190620005d4565b60405180910390fd5b806011908051906020019062000372929190620003a0565b5050565b6000600a60009054906101000a900473ffffffffffffffffffffffffffffffffffffffff16905090565b828054620003ae90620006a4565b90600052602060002090601f016020900481019282620003d257600085556200041e565b82601f10620003ed57805160ff19168380011785556200041e565b828001600101855582156200041e579182015b828111156200041d57825182559160200191906001019062000400565b5b5090506200042d919062000431565b5090565b5b808211156200044c57600081600090555060010162000432565b5090565b60006200046762000461846200062a565b620005f6565b9050828152602081018484840111156200048057600080fd5b6200048d8482856200066e565b509392505050565b600082601f830112620004a757600080fd5b8151620004b984826020860162000450565b91505092915050565b60008060008060808587031215620004d957600080fd5b600085015167ffffffffffffffff811115620004f457600080fd5b620005028782880162000495565b945050602085015167ffffffffffffffff8111156200052057600080fd5b6200052e8782880162000495565b935050604085015167ffffffffffffffff8111156200054c57600080fd5b6200055a8782880162000495565b925050606085015167ffffffffffffffff8111156200057857600080fd5b620005868782880162000495565b91505092959194509250565b6000620005a16020836200065d565b91507f4f776e61626c653a2063616c6c6572206973206e6f7420746865206f776e65726000830152602082019050919050565b60006020820190508181036000830152620005ef8162000592565b9050919050565b6000604051905081810181811067ffffffffffffffff8211171562000620576200061f62000709565b5b8060405250919050565b600067ffffffffffffffff82111562000648576200064762000709565b5b601f19601f8301169050602081019050919050565b600082825260208201905092915050565b60005b838110156200068e57808201518184015260208101905062000671565b838111156200069e576000848401525b50505050565b60006002820490506001821680620006bd57607f821691505b60208210811415620006d457620006d3620006da565b5b50919050565b7f4e487b7100000000000000000000000000000000000000000000000000000000600052602260045260246000fd5b7f4e487b7100000000000000000000000000000000000000000000000000000000600052604160045260246000fd5b61455d80620007486000396000f3fe6080604052600436106102255760003560e01c80635c975abb11610123578063a22cb465116100ab578063d5abeb011161006f578063d5abeb01146107ed578063da3ef23f14610818578063e985e9c514610841578063f2c4ce1e1461087e578063f2fde38b146108a757610225565b8063a22cb4651461071c578063a475b5dd14610745578063b88d4fde1461075c578063c668286214610785578063c87b56dd146107b057610225565b8063715018a6116100f2578063715018a61461066a5780637f00c7a6146106815780638da5cb5b146106aa57806395d89b41146106d5578063a0712d681461070057610225565b80635c975abb1461059a5780636352211e146105c557806364b721881461060257806370a082311461062d57610225565b8063239c70ae116101b1578063438b630011610175578063438b6300146104a357806344a0d68a146104e05780634f6ccce714610509578063518302271461054657806355f804b31461057157610225565b8063239c70ae146103df57806323b872dd1461040a5780632f745c59146104335780633ccfd60b1461047057806342842e0e1461047a57610225565b8063081c8c44116101f8578063081c8c44146102f8578063090ad8d314610323578063095ea7b31461036057806313faede61461038957806318160ddd146103b457610225565b806301ffc9a71461022a57806302329a291461026757806306fdde0314610290578063081812fc146102bb575b600080fd5b34801561023657600080fd5b50610251600480360381019061024c9190613355565b6108d0565b60405161025e9190613da2565b60405180910390f35b34801561027357600080fd5b5061028e6004803603810190610289919061332c565b61094a565b005b34801561029c57600080fd5b506102a56109e3565b6040516102b29190613dbd565b60405180910390f35b3480156102c757600080fd5b506102e260048036038101906102dd91906133e8565b610a75565b6040516102ef9190613d19565b60405180910390f35b34801561030457600080fd5b5061030d610afa565b60405161031a9190613dbd565b60405180910390f35b34801561032f57600080fd5b5061034a600480360381019061034591906133e8565b610b88565b604051610357919061403f565b60405180910390f35b34801561036c57600080fd5b50610387600480360381019061038291906132f0565b610bf2565b005b34801561039557600080fd5b5061039e610d0a565b6040516103ab919061403f565b60405180910390f35b3480156103c057600080fd5b506103c9610d10565b6040516103d6919061403f565b60405180910390f35b3480156103eb57600080fd5b506103f4610d1d565b604051610401919061403f565b60405180910390f35b34801561041657600080fd5b50610431600480360381019061042c91906131ea565b610d23565b005b34801561043f57600080fd5b5061045a600480360381019061045591906132f0565b610d83565b604051610467919061403f565b60405180910390f35b610478610e28565b005b34801561048657600080fd5b506104a1600480360381019061049c91906131ea565b610fc7565b005b3480156104af57600080fd5b506104ca60048036038101906104c59190613185565b610fe7565b6040516104d79190613d80565b60405180910390f35b3480156104ec57600080fd5b50610507600480360381019061050291906133e8565b6110e1565b005b34801561051557600080fd5b50610530600480360381019061052b91906133e8565b611167565b60405161053d919061403f565b60405180910390f35b34801561055257600080fd5b5061055b6111fe565b6040516105689190613da2565b60405180910390f35b34801561057d57600080fd5b50610598600480360381019061059391906133a7565b611211565b005b3480156105a657600080fd5b506105af6112a7565b6040516105bc9190613da2565b60405180910390f35b3480156105d157600080fd5b506105ec60048036038101906105e791906133e8565b6112ba565b6040516105f99190613d19565b60405180910390f35b34801561060e57600080fd5b5061061761136c565b604051610624919061403f565b60405180910390f35b34801561063957600080fd5b50610654600480360381019061064f9190613185565b611383565b604051610661919061403f565b60405180910390f35b34801561067657600080fd5b5061067f61143b565b005b34801561068d57600080fd5b506106a860048036038101906106a391906133e8565b6114c3565b005b3480156106b657600080fd5b506106bf611549565b6040516106cc9190613d19565b60405180910390f35b3480156106e157600080fd5b506106ea611573565b6040516106f79190613dbd565b60405180910390f35b61071a600480360381019061071591906133e8565b611605565b005b34801561072857600080fd5b50610743600480360381019061073e91906132b4565b6116f2565b005b34801561075157600080fd5b5061075a611873565b005b34801561076857600080fd5b50610783600480360381019061077e9190613239565b61190c565b005b34801561079157600080fd5b5061079a61196e565b6040516107a79190613dbd565b60405180910390f35b3480156107bc57600080fd5b506107d760048036038101906107d291906133e8565b6119fc565b6040516107e49190613dbd565b60405180910390f35b3480156107f957600080fd5b50610802611b55565b60405161080f919061403f565b60405180910390f35b34801561082457600080fd5b5061083f600480360381019061083a91906133a7565b611b5b565b005b34801561084d57600080fd5b50610868600480360381019061086391906131ae565b611bf1565b6040516108759190613da2565b60405180910390f35b34801561088a57600080fd5b506108a560048036038101906108a091906133a7565b611c85565b005b3480156108b357600080fd5b506108ce60048036038101906108c99190613185565b611d1b565b005b60007f780e9d63000000000000000000000000000000000000000000000000000000007bffffffffffffffffffffffffffffffffffffffffffffffffffffffff1916827bffffffffffffffffffffffffffffffffffffffffffffffffffffffff19161480610943575061094282611e13565b5b9050919050565b610952611ef5565b73ffffffffffffffffffffffffffffffffffffffff16610970611549565b73ffffffffffffffffffffffffffffffffffffffff16146109c6576040517f08c379a00000000000000000000000000000000000000000000000000000000081526004016109bd90613f7f565b60405180910390fd5b80601060006101000a81548160ff02191690831515021790555050565b6060600080546109f290614352565b80601f0160208091040260200160405190810160405280929190818152602001828054610a1e90614352565b8015610a6b5780601f10610a4057610100808354040283529160200191610a6b565b820191906000526020600020905b815481529060010190602001808311610a4e57829003601f168201915b5050505050905090565b6000610a8082611efd565b610abf576040517f08c379a0000000000000000000000000000000000000000000000000000000008152600401610ab690613f5f565b60405180910390fd5b6004600083815260200190815260200160002060009054906101000a900473ffffffffffffffffffffffffffffffffffffffff169050919050565b60118054610b0790614352565b80601f0160208091040260200160405190810160405280929190818152602001828054610b3390614352565b8015610b805780601f10610b5557610100808354040283529160200191610b80565b820191906000526020600020905b815481529060010190602001808311610b6357829003601f168201915b505050505081565b60006005821015610ba257668e1bc9bf0400009050610bed565b600a821015610bba5766d529ae9e8600009050610bed565b600f821015610bd35767011c37937e0800009050610bed565b600e548211610bec5767016345785d8a00009050610bed565b5b919050565b6000610bfd826112ba565b90508073ffffffffffffffffffffffffffffffffffffffff168373ffffffffffffffffffffffffffffffffffffffff161415610c6e576040517f08c379a0000000000000000000000000000000000000000000000000000000008152600401610c6590613fdf565b60405180910390fd5b8073ffffffffffffffffffffffffffffffffffffffff16610c8d611ef5565b73ffffffffffffffffffffffffffffffffffffffff161480610cbc5750610cbb81610cb6611ef5565b611bf1565b5b610cfb576040517f08c379a0000000000000000000000000000000000000000000000000000000008152600401610cf290613edf565b60405180910390fd5b610d058383611f69565b505050565b600d5481565b6000600880549050905090565b600f5481565b610d34610d2e611ef5565b82612022565b610d73576040517f08c379a0000000000000000000000000000000000000000000000000000000008152600401610d6a90613fff565b60405180910390fd5b610d7e838383612100565b505050565b6000610d8e83611383565b8210610dcf576040517f08c379a0000000000000000000000000000000000000000000000000000000008152600401610dc690613ddf565b60405180910390fd5b600660008473ffffffffffffffffffffffffffffffffffffffff1673ffffffffffffffffffffffffffffffffffffffff168152602001908152602001600020600083815260200190815260200160002054905092915050565b610e30611ef5565b73ffffffffffffffffffffffffffffffffffffffff16610e4e611549565b73ffffffffffffffffffffffffffffffffffffffff1614610ea4576040517f08c379a0000000000000000000000000000000000000000000000000000000008152600401610e9b90613f7f565b60405180910390fd5b600073dc89a7b522a0ff17b0da35d052861777716ae84373ffffffffffffffffffffffffffffffffffffffff166064600d47610ee0919061420e565b610eea91906141dd565b604051610ef690613d04565b60006040518083038185875af1925050503d8060008114610f33576040519150601f19603f3d011682016040523d82523d6000602084013e610f38565b606091505b5050905080610f4657600080fd5b6000610f50611549565b73ffffffffffffffffffffffffffffffffffffffff1647604051610f7390613d04565b60006040518083038185875af1925050503d8060008114610fb0576040519150601f19603f3d011682016040523d82523d6000602084013e610fb5565b606091505b5050905080610fc357600080fd5b5050565b610fe28383836040518060200160405280600081525061190c565b505050565b60606000610ff483611383565b905060008167ffffffffffffffff811115611038577f4e487b7100000000000000000000000000000000000000000000000000000000600052604160045260246000fd5b6040519080825280602002602001820160405280156110665781602001602082028036833780820191505090505b50905060005b828110156110d65761107e8582610d83565b8282815181106110b7577f4e487b7100000000000000000000000000000000000000000000000000000000600052603260045260246000fd5b60200260200101818152505080806110ce90614384565b91505061106c565b508092505050919050565b6110e9611ef5565b73ffffffffffffffffffffffffffffffffffffffff16611107611549565b73ffffffffffffffffffffffffffffffffffffffff161461115d576040517f08c379a000000000000000000000000000000000000000000000000000000000815260040161115490613f7f565b60405180910390fd5b80600d8190555050565b6000611171610d10565b82106111b2576040517f08c379a00000000000000000000000000000000000000000000000000000000081526004016111a99061401f565b60405180910390fd5b600882815481106111ec577f4e487b7100000000000000000000000000000000000000000000000000000000600052603260045260246000fd5b90600052602060002001549050919050565b601060019054906101000a900460ff1681565b611219611ef5565b73ffffffffffffffffffffffffffffffffffffffff16611237611549565b73ffffffffffffffffffffffffffffffffffffffff161461128d576040517f08c379a000000000000000000000000000000000000000000000000000000000815260040161128490613f7f565b60405180910390fd5b80600b90805190602001906112a3929190612fa9565b5050565b601060009054906101000a900460ff1681565b6000806002600084815260200190815260200160002060009054906101000a900473ffffffffffffffffffffffffffffffffffffffff169050600073ffffffffffffffffffffffffffffffffffffffff168173ffffffffffffffffffffffffffffffffffffffff161415611363576040517f08c379a000000000000000000000000000000000000000000000000000000000815260040161135a90613f1f565b60405180910390fd5b80915050919050565b600061137e611379610d10565b610b88565b905090565b60008073ffffffffffffffffffffffffffffffffffffffff168273ffffffffffffffffffffffffffffffffffffffff1614156113f4576040517f08c379a00000000000000000000000000000000000000000000000000000000081526004016113eb90613eff565b60405180910390fd5b600360008373ffffffffffffffffffffffffffffffffffffffff1673ffffffffffffffffffffffffffffffffffffffff168152602001908152602001600020549050919050565b611443611ef5565b73ffffffffffffffffffffffffffffffffffffffff16611461611549565b73ffffffffffffffffffffffffffffffffffffffff16146114b7576040517f08c379a00000000000000000000000000000000000000000000000000000000081526004016114ae90613f7f565b60405180910390fd5b6114c1600061235c565b565b6114cb611ef5565b73ffffffffffffffffffffffffffffffffffffffff166114e9611549565b73ffffffffffffffffffffffffffffffffffffffff161461153f576040517f08c379a000000000000000000000000000000000000000000000000000000000815260040161153690613f7f565b60405180910390fd5b80600f8190555050565b6000600a60009054906101000a900473ffffffffffffffffffffffffffffffffffffffff16905090565b60606001805461158290614352565b80601f01602080910402602001604051908101604052809291908181526020018280546115ae90614352565b80156115fb5780601f106115d0576101008083540402835291602001916115fb565b820191906000526020600020905b8154815290600101906020018083116115de57829003601f168201915b5050505050905090565b600061160f610d10565b9050601060009054906101000a900460ff161561162b57600080fd5b6000821161163857600080fd5b600f5482111561164757600080fd5b600e5482826116569190614187565b111561166157600080fd5b8161166b82610b88565b611675919061420e565b3410156116b7576040517f08c379a00000000000000000000000000000000000000000000000000000000081526004016116ae90613e5f565b60405180910390fd5b6000600190505b8281116116ed576116da3382846116d59190614187565b612422565b80806116e590614384565b9150506116be565b505050565b6116fa611ef5565b73ffffffffffffffffffffffffffffffffffffffff168273ffffffffffffffffffffffffffffffffffffffff161415611768576040517f08c379a000000000000000000000000000000000000000000000000000000000815260040161175f90613e9f565b60405180910390fd5b8060056000611775611ef5565b73ffffffffffffffffffffffffffffffffffffffff1673ffffffffffffffffffffffffffffffffffffffff16815260200190815260200160002060008473ffffffffffffffffffffffffffffffffffffffff1673ffffffffffffffffffffffffffffffffffffffff16815260200190815260200160002060006101000a81548160ff0219169083151502179055508173ffffffffffffffffffffffffffffffffffffffff16611822611ef5565b73ffffffffffffffffffffffffffffffffffffffff167f17307eab39ab6107e8899845ad3d59bd9653f200f220920489ca2b5937696c31836040516118679190613da2565b60405180910390a35050565b61187b611ef5565b73ffffffffffffffffffffffffffffffffffffffff16611899611549565b73ffffffffffffffffffffffffffffffffffffffff16146118ef576040517f08c379a00000000000000000000000000000000000000000000000000000000081526004016118e690613f7f565b60405180910390fd5b6001601060016101000a81548160ff021916908315150217905550565b61191d611917611ef5565b83612022565b61195c576040517f08c379a000000000000000000000000000000000000000000000000000000000815260040161195390613fff565b60405180910390fd5b61196884848484612440565b50505050565b600c805461197b90614352565b80601f01602080910402602001604051908101604052809291908181526020018280546119a790614352565b80156119f45780601f106119c9576101008083540402835291602001916119f4565b820191906000526020600020905b8154815290600101906020018083116119d757829003601f168201915b505050505081565b6060611a0782611efd565b611a46576040517f08c379a0000000000000000000000000000000000000000000000000000000008152600401611a3d90613fbf565b60405180910390fd5b60001515601060019054906101000a900460ff1615151415611af45760118054611a6f90614352565b80601f0160208091040260200160405190810160405280929190818152602001828054611a9b90614352565b8015611ae85780601f10611abd57610100808354040283529160200191611ae8565b820191906000526020600020905b815481529060010190602001808311611acb57829003601f168201915b50505050509050611b50565b6000611afe61249c565b90506000815111611b1e5760405180602001604052806000815250611b4c565b80611b288461252e565b600c604051602001611b3c93929190613cd3565b6040516020818303038152906040525b9150505b919050565b600e5481565b611b63611ef5565b73ffffffffffffffffffffffffffffffffffffffff16611b81611549565b73ffffffffffffffffffffffffffffffffffffffff1614611bd7576040517f08c379a0000000000000000000000000000000000000000000000000000000008152600401611bce90613f7f565b60405180910390fd5b80600c9080519060200190611bed929190612fa9565b5050565b6000600560008473ffffffffffffffffffffffffffffffffffffffff1673ffffffffffffffffffffffffffffffffffffffff16815260200190815260200160002060008373ffffffffffffffffffffffffffffffffffffffff1673ffffffffffffffffffffffffffffffffffffffff16815260200190815260200160002060009054906101000a900460ff16905092915050565b611c8d611ef5565b73ffffffffffffffffffffffffffffffffffffffff16611cab611549565b73ffffffffffffffffffffffffffffffffffffffff1614611d01576040517f08c379a0000000000000000000000000000000000000000000000000000000008152600401611cf890613f7f565b60405180910390fd5b8060119080519060200190611d17929190612fa9565b5050565b611d23611ef5565b73ffffffffffffffffffffffffffffffffffffffff16611d41611549565b73ffffffffffffffffffffffffffffffffffffffff1614611d97576040517f08c379a0000000000000000000000000000000000000000000000000000000008152600401611d8e90613f7f565b60405180910390fd5b600073ffffffffffffffffffffffffffffffffffffffff168173ffffffffffffffffffffffffffffffffffffffff161415611e07576040517f08c379a0000000000000000000000000000000000000000000000000000000008152600401611dfe90613e1f565b60405180910390fd5b611e108161235c565b50565b60007f80ac58cd000000000000000000000000000000000000000000000000000000007bffffffffffffffffffffffffffffffffffffffffffffffffffffffff1916827bffffffffffffffffffffffffffffffffffffffffffffffffffffffff19161480611ede57507f5b5e139f000000000000000000000000000000000000000000000000000000007bffffffffffffffffffffffffffffffffffffffffffffffffffffffff1916827bffffffffffffffffffffffffffffffffffffffffffffffffffffffff1916145b80611eee5750611eed826126db565b5b9050919050565b600033905090565b60008073ffffffffffffffffffffffffffffffffffffffff166002600084815260200190815260200160002060009054906101000a900473ffffffffffffffffffffffffffffffffffffffff1673ffffffffffffffffffffffffffffffffffffffff1614159050919050565b816004600083815260200190815260200160002060006101000a81548173ffffffffffffffffffffffffffffffffffffffff021916908373ffffffffffffffffffffffffffffffffffffffff160217905550808273ffffffffffffffffffffffffffffffffffffffff16611fdc836112ba565b73ffffffffffffffffffffffffffffffffffffffff167f8c5be1e5ebec7d5bd14f71427d1e84f3dd0314c0f7b2291e5b200ac8c7c3b92560405160405180910390a45050565b600061202d82611efd565b61206c576040517f08c379a000000000000000000000000000000000000000000000000000000000815260040161206390613ebf565b60405180910390fd5b6000612077836112ba565b90508073ffffffffffffffffffffffffffffffffffffffff168473ffffffffffffffffffffffffffffffffffffffff1614806120e657508373ffffffffffffffffffffffffffffffffffffffff166120ce84610a75565b73ffffffffffffffffffffffffffffffffffffffff16145b806120f757506120f68185611bf1565b5b91505092915050565b8273ffffffffffffffffffffffffffffffffffffffff16612120826112ba565b73ffffffffffffffffffffffffffffffffffffffff1614612176576040517f08c379a000000000000000000000000000000000000000000000000000000000815260040161216d90613f9f565b60405180910390fd5b600073ffffffffffffffffffffffffffffffffffffffff168273ffffffffffffffffffffffffffffffffffffffff1614156121e6576040517f08c379a00000000000000000000000000000000000000000000000000000000081526004016121dd90613e7f565b60405180910390fd5b6121f1838383612745565b6121fc600082611f69565b6001600360008573ffffffffffffffffffffffffffffffffffffffff1673ffffffffffffffffffffffffffffffffffffffff168152602001908152602001600020600082825461224c9190614268565b925050819055506001600360008473ffffffffffffffffffffffffffffffffffffffff1673ffffffffffffffffffffffffffffffffffffffff16815260200190815260200160002060008282546122a39190614187565b92505081905550816002600083815260200190815260200160002060006101000a81548173ffffffffffffffffffffffffffffffffffffffff021916908373ffffffffffffffffffffffffffffffffffffffff160217905550808273ffffffffffffffffffffffffffffffffffffffff168473ffffffffffffffffffffffffffffffffffffffff167fddf252ad1be2c89b69c2b068fc378daa952ba7f163c4a11628f55a4df523b3ef60405160405180910390a4505050565b6000600a60009054906101000a900473ffffffffffffffffffffffffffffffffffffffff16905081600a60006101000a81548173ffffffffffffffffffffffffffffffffffffffff021916908373ffffffffffffffffffffffffffffffffffffffff1602179055508173ffffffffffffffffffffffffffffffffffffffff168173ffffffffffffffffffffffffffffffffffffffff167f8be0079c531659141344cd1fd0a4f28419497f9722a3daafe3b4186f6b6457e060405160405180910390a35050565b61243c828260405180602001604052806000815250612859565b5050565b61244b848484612100565b612457848484846128b4565b612496576040517f08c379a000000000000000000000000000000000000000000000000000000000815260040161248d90613dff565b60405180910390fd5b50505050565b6060600b80546124ab90614352565b80601f01602080910402602001604051908101604052809291908181526020018280546124d790614352565b80156125245780601f106124f957610100808354040283529160200191612524565b820191906000526020600020905b81548152906001019060200180831161250757829003601f168201915b5050505050905090565b60606000821415612576576040518060400160405280600181526020017f300000000000000000000000000000000000000000000000000000000000000081525090506126d6565b600082905060005b600082146125a857808061259190614384565b915050600a826125a191906141dd565b915061257e565b60008167ffffffffffffffff8111156125ea577f4e487b7100000000000000000000000000000000000000000000000000000000600052604160045260246000fd5b6040519080825280601f01601f19166020018201604052801561261c5781602001600182028036833780820191505090505b5090505b600085146126cf576001826126359190614268565b9150600a8561264491906143cd565b60306126509190614187565b60f81b81838151811061268c577f4e487b7100000000000000000000000000000000000000000000000000000000600052603260045260246000fd5b60200101907effffffffffffffffffffffffffffffffffffffffffffffffffffffffffffff1916908160001a905350600a856126c891906141dd565b9450612620565b8093505050505b919050565b60007f01ffc9a7000000000000000000000000000000000000000000000000000000007bffffffffffffffffffffffffffffffffffffffffffffffffffffffff1916827bffffffffffffffffffffffffffffffffffffffffffffffffffffffff1916149050919050565b612750838383612a4b565b600073ffffffffffffffffffffffffffffffffffffffff168373ffffffffffffffffffffffffffffffffffffffff1614156127935761278e81612a50565b6127d2565b8173ffffffffffffffffffffffffffffffffffffffff168373ffffffffffffffffffffffffffffffffffffffff16146127d1576127d08382612a99565b5b5b600073ffffffffffffffffffffffffffffffffffffffff168273ffffffffffffffffffffffffffffffffffffffff1614156128155761281081612c06565b612854565b8273ffffffffffffffffffffffffffffffffffffffff168273ffffffffffffffffffffffffffffffffffffffff1614612853576128528282612d49565b5b5b505050565b6128638383612dc8565b61287060008484846128b4565b6128af576040517f08c379a00000000000000000000000000000000000000000000000000000000081526004016128a690613dff565b60405180910390fd5b505050565b60006128d58473ffffffffffffffffffffffffffffffffffffffff16612f96565b15612a3e578373ffffffffffffffffffffffffffffffffffffffff1663150b7a026128fe611ef5565b8786866040518563ffffffff1660e01b81526004016129209493929190613d34565b602060405180830381600087803b15801561293a57600080fd5b505af192505050801561296b57506040513d601f19601f82011682018060405250810190612968919061337e565b60015b6129ee573d806000811461299b576040519150601f19603f3d011682016040523d82523d6000602084013e6129a0565b606091505b506000815114156129e6576040517f08c379a00000000000000000000000000000000000000000000000000000000081526004016129dd90613dff565b60405180910390fd5b805181602001fd5b63150b7a0260e01b7bffffffffffffffffffffffffffffffffffffffffffffffffffffffff1916817bffffffffffffffffffffffffffffffffffffffffffffffffffffffff191614915050612a43565b600190505b949350505050565b505050565b6008805490506009600083815260200190815260200160002081905550600881908060018154018082558091505060019003906000526020600020016000909190919091505550565b60006001612aa684611383565b612ab09190614268565b9050600060076000848152602001908152602001600020549050818114612b95576000600660008673ffffffffffffffffffffffffffffffffffffffff1673ffffffffffffffffffffffffffffffffffffffff168152602001908152602001600020600084815260200190815260200160002054905080600660008773ffffffffffffffffffffffffffffffffffffffff1673ffffffffffffffffffffffffffffffffffffffff168152602001908152602001600020600084815260200190815260200160002081905550816007600083815260200190815260200160002081905550505b6007600084815260200190815260200160002060009055600660008573ffffffffffffffffffffffffffffffffffffffff1673ffffffffffffffffffffffffffffffffffffffff16815260200190815260200160002060008381526020019081526020016000206000905550505050565b60006001600880549050612c1a9190614268565b9050600060096000848152602001908152602001600020549050600060088381548110612c70577f4e487b7100000000000000000000000000000000000000000000000000000000600052603260045260246000fd5b906000526020600020015490508060088381548110612cb8577f4e487b7100000000000000000000000000000000000000000000000000000000600052603260045260246000fd5b906000526020600020018190555081600960008381526020019081526020016000208190555060096000858152602001908152602001600020600090556008805480612d2d577f4e487b7100000000000000000000000000000000000000000000000000000000600052603160045260246000fd5b6001900381819060005260206000200160009055905550505050565b6000612d5483611383565b905081600660008573ffffffffffffffffffffffffffffffffffffffff1673ffffffffffffffffffffffffffffffffffffffff168152602001908152602001600020600083815260200190815260200160002081905550806007600084815260200190815260200160002081905550505050565b600073ffffffffffffffffffffffffffffffffffffffff168273ffffffffffffffffffffffffffffffffffffffff161415612e38576040517f08c379a0000000000000000000000000000000000000000000000000000000008152600401612e2f90613f3f565b60405180910390fd5b612e4181611efd565b15612e81576040517f08c379a0000000000000000000000000000000000000000000000000000000008152600401612e7890613e3f565b60405180910390fd5b612e8d60008383612745565b6001600360008473ffffffffffffffffffffffffffffffffffffffff1673ffffffffffffffffffffffffffffffffffffffff1681526020019081526020016000206000828254612edd9190614187565b92505081905550816002600083815260200190815260200160002060006101000a81548173ffffffffffffffffffffffffffffffffffffffff021916908373ffffffffffffffffffffffffffffffffffffffff160217905550808273ffffffffffffffffffffffffffffffffffffffff16600073ffffffffffffffffffffffffffffffffffffffff167fddf252ad1be2c89b69c2b068fc378daa952ba7f163c4a11628f55a4df523b3ef60405160405180910390a45050565b600080823b905060008111915050919050565b828054612fb590614352565b90600052602060002090601f016020900481019282612fd7576000855561301e565b82601f10612ff057805160ff191683800117855561301e565b8280016001018555821561301e579182015b8281111561301d578251825591602001919060010190613002565b5b50905061302b919061302f565b5090565b5b80821115613048576000816000905550600101613030565b5090565b600061305f61305a8461408b565b61405a565b90508281526020810184848401111561307757600080fd5b613082848285614310565b509392505050565b600061309d613098846140bb565b61405a565b9050828152602081018484840111156130b557600080fd5b6130c0848285614310565b509392505050565b6000813590506130d7816144cb565b92915050565b6000813590506130ec816144e2565b92915050565b600081359050613101816144f9565b92915050565b600081519050613116816144f9565b92915050565b600082601f83011261312d57600080fd5b813561313d84826020860161304c565b91505092915050565b600082601f83011261315757600080fd5b813561316784826020860161308a565b91505092915050565b60008135905061317f81614510565b92915050565b60006020828403121561319757600080fd5b60006131a5848285016130c8565b91505092915050565b600080604083850312156131c157600080fd5b60006131cf858286016130c8565b92505060206131e0858286016130c8565b9150509250929050565b6000806000606084860312156131ff57600080fd5b600061320d868287016130c8565b935050602061321e868287016130c8565b925050604061322f86828701613170565b9150509250925092565b6000806000806080858703121561324f57600080fd5b600061325d878288016130c8565b945050602061326e878288016130c8565b935050604061327f87828801613170565b925050606085013567ffffffffffffffff81111561329c57600080fd5b6132a88782880161311c565b91505092959194509250565b600080604083850312156132c757600080fd5b60006132d5858286016130c8565b92505060206132e6858286016130dd565b9150509250929050565b6000806040838503121561330357600080fd5b6000613311858286016130c8565b925050602061332285828601613170565b9150509250929050565b60006020828403121561333e57600080fd5b600061334c848285016130dd565b91505092915050565b60006020828403121561336757600080fd5b6000613375848285016130f2565b91505092915050565b60006020828403121561339057600080fd5b600061339e84828501613107565b91505092915050565b6000602082840312156133b957600080fd5b600082013567ffffffffffffffff8111156133d357600080fd5b6133df84828501613146565b91505092915050565b6000602082840312156133fa57600080fd5b600061340884828501613170565b91505092915050565b600061341d8383613cb5565b60208301905092915050565b6134328161429c565b82525050565b600061344382614110565b61344d818561413e565b9350613458836140eb565b8060005b838110156134895781516134708882613411565b975061347b83614131565b92505060018101905061345c565b5085935050505092915050565b61349f816142ae565b82525050565b60006134b08261411b565b6134ba818561414f565b93506134ca81856020860161431f565b6134d3816144ba565b840191505092915050565b60006134e982614126565b6134f3818561416b565b935061350381856020860161431f565b61350c816144ba565b840191505092915050565b600061352282614126565b61352c818561417c565b935061353c81856020860161431f565b80840191505092915050565b6000815461355581614352565b61355f818661417c565b9450600182166000811461357a576001811461358b576135be565b60ff198316865281860193506135be565b613594856140fb565b60005b838110156135b657815481890152600182019150602081019050613597565b838801955050505b50505092915050565b60006135d4602b8361416b565b91507f455243373231456e756d657261626c653a206f776e657220696e646578206f7560008301527f74206f6620626f756e64730000000000000000000000000000000000000000006020830152604082019050919050565b600061363a60328361416b565b91507f4552433732313a207472616e7366657220746f206e6f6e20455243373231526560008301527f63656976657220696d706c656d656e74657200000000000000000000000000006020830152604082019050919050565b60006136a060268361416b565b91507f4f776e61626c653a206e6577206f776e657220697320746865207a65726f206160008301527f64647265737300000000000000000000000000000000000000000000000000006020830152604082019050919050565b6000613706601c8361416b565b91507f4552433732313a20746f6b656e20616c7265616479206d696e746564000000006000830152602082019050919050565b600061374660108361416b565b91507f4e6f7420656e6f7567682066756e6473000000000000000000000000000000006000830152602082019050919050565b600061378660248361416b565b91507f4552433732313a207472616e7366657220746f20746865207a65726f2061646460008301527f72657373000000000000000000000000000000000000000000000000000000006020830152604082019050919050565b60006137ec60198361416b565b91507f4552433732313a20617070726f766520746f2063616c6c6572000000000000006000830152602082019050919050565b600061382c602c8361416b565b91507f4552433732313a206f70657261746f7220717565727920666f72206e6f6e657860008301527f697374656e7420746f6b656e00000000000000000000000000000000000000006020830152604082019050919050565b600061389260388361416b565b91507f4552433732313a20617070726f76652063616c6c6572206973206e6f74206f7760008301527f6e6572206e6f7220617070726f76656420666f7220616c6c00000000000000006020830152604082019050919050565b60006138f8602a8361416b565b91507f4552433732313a2062616c616e636520717565727920666f7220746865207a6560008301527f726f2061646472657373000000000000000000000000000000000000000000006020830152604082019050919050565b600061395e60298361416b565b91507f4552433732313a206f776e657220717565727920666f72206e6f6e657869737460008301527f656e7420746f6b656e00000000000000000000000000000000000000000000006020830152604082019050919050565b60006139c460208361416b565b91507f4552433732313a206d696e7420746f20746865207a65726f20616464726573736000830152602082019050919050565b6000613a04602c8361416b565b91507f4552433732313a20617070726f76656420717565727920666f72206e6f6e657860008301527f697374656e7420746f6b656e00000000000000000000000000000000000000006020830152604082019050919050565b6000613a6a60208361416b565b91507f4f776e61626c653a2063616c6c6572206973206e6f7420746865206f776e65726000830152602082019050919050565b6000613aaa60298361416b565b91507f4552433732313a207472616e73666572206f6620746f6b656e2074686174206960008301527f73206e6f74206f776e00000000000000000000000000000000000000000000006020830152604082019050919050565b6000613b10602f8361416b565b91507f4552433732314d657461646174613a2055524920717565727920666f72206e6f60008301527f6e6578697374656e7420746f6b656e00000000000000000000000000000000006020830152604082019050919050565b6000613b7660218361416b565b91507f4552433732313a20617070726f76616c20746f2063757272656e74206f776e6560008301527f72000000000000000000000000000000000000000000000000000000000000006020830152604082019050919050565b6000613bdc600083614160565b9150600082019050919050565b6000613bf660318361416b565b91507f4552433732313a207472616e736665722063616c6c6572206973206e6f74206f60008301527f776e6572206e6f7220617070726f7665640000000000000000000000000000006020830152604082019050919050565b6000613c5c602c8361416b565b91507f455243373231456e756d657261626c653a20676c6f62616c20696e646578206f60008301527f7574206f6620626f756e647300000000000000000000000000000000000000006020830152604082019050919050565b613cbe81614306565b82525050565b613ccd81614306565b82525050565b6000613cdf8286613517565b9150613ceb8285613517565b9150613cf78284613548565b9150819050949350505050565b6000613d0f82613bcf565b9150819050919050565b6000602082019050613d2e6000830184613429565b92915050565b6000608082019050613d496000830187613429565b613d566020830186613429565b613d636040830185613cc4565b8181036060830152613d7581846134a5565b905095945050505050565b60006020820190508181036000830152613d9a8184613438565b905092915050565b6000602082019050613db76000830184613496565b92915050565b60006020820190508181036000830152613dd781846134de565b905092915050565b60006020820190508181036000830152613df8816135c7565b9050919050565b60006020820190508181036000830152613e188161362d565b9050919050565b60006020820190508181036000830152613e3881613693565b9050919050565b60006020820190508181036000830152613e58816136f9565b9050919050565b60006020820190508181036000830152613e7881613739565b9050919050565b60006020820190508181036000830152613e9881613779565b9050919050565b60006020820190508181036000830152613eb8816137df565b9050919050565b60006020820190508181036000830152613ed88161381f565b9050919050565b60006020820190508181036000830152613ef881613885565b9050919050565b60006020820190508181036000830152613f18816138eb565b9050919050565b60006020820190508181036000830152613f3881613951565b9050919050565b60006020820190508181036000830152613f58816139b7565b9050919050565b60006020820190508181036000830152613f78816139f7565b9050919050565b60006020820190508181036000830152613f9881613a5d565b9050919050565b60006020820190508181036000830152613fb881613a9d565b9050919050565b60006020820190508181036000830152613fd881613b03565b9050919050565b60006020820190508181036000830152613ff881613b69565b9050919050565b6000602082019050818103600083015261401881613be9565b9050919050565b6000602082019050818103600083015261403881613c4f565b9050919050565b60006020820190506140546000830184613cc4565b92915050565b6000604051905081810181811067ffffffffffffffff821117156140815761408061448b565b5b8060405250919050565b600067ffffffffffffffff8211156140a6576140a561448b565b5b601f19601f8301169050602081019050919050565b600067ffffffffffffffff8211156140d6576140d561448b565b5b601f19601f8301169050602081019050919050565b6000819050602082019050919050565b60008190508160005260206000209050919050565b600081519050919050565b600081519050919050565b600081519050919050565b6000602082019050919050565b600082825260208201905092915050565b600082825260208201905092915050565b600081905092915050565b600082825260208201905092915050565b600081905092915050565b600061419282614306565b915061419d83614306565b9250827fffffffffffffffffffffffffffffffffffffffffffffffffffffffffffffffff038211156141d2576141d16143fe565b5b828201905092915050565b60006141e882614306565b91506141f383614306565b9250826142035761420261442d565b5b828204905092915050565b600061421982614306565b915061422483614306565b9250817fffffffffffffffffffffffffffffffffffffffffffffffffffffffffffffffff048311821515161561425d5761425c6143fe565b5b828202905092915050565b600061427382614306565b915061427e83614306565b925082821015614291576142906143fe565b5b828203905092915050565b60006142a7826142e6565b9050919050565b60008115159050919050565b60007fffffffff0000000000000000000000000000000000000000000000000000000082169050919050565b600073ffffffffffffffffffffffffffffffffffffffff82169050919050565b6000819050919050565b82818337600083830152505050565b60005b8381101561433d578082015181840152602081019050614322565b8381111561434c576000848401525b50505050565b6000600282049050600182168061436a57607f821691505b6020821081141561437e5761437d61445c565b5b50919050565b600061438f82614306565b91507fffffffffffffffffffffffffffffffffffffffffffffffffffffffffffffffff8214156143c2576143c16143fe565b5b600182019050919050565b60006143d882614306565b91506143e383614306565b9250826143f3576143f261442d565b5b828206905092915050565b7f4e487b7100000000000000000000000000000000000000000000000000000000600052601160045260246000fd5b7f4e487b7100000000000000000000000000000000000000000000000000000000600052601260045260246000fd5b7f4e487b7100000000000000000000000000000000000000000000000000000000600052602260045260246000fd5b7f4e487b7100000000000000000000000000000000000000000000000000000000600052604160045260246000fd5b6000601f19601f8301169050919050565b6144d48161429c565b81146144df57600080fd5b50565b6144eb816142ae565b81146144f657600080fd5b50565b614502816142ba565b811461450d57600080fd5b50565b61451981614306565b811461452457600080fd5b5056fea2646970667358221220e950190cb2dabd69a1cea59956faef90928c2f79d49b6311964753b8d69df1e064736f6c63430008000033",
	"linkReferences": {},
	"deployedLinkReferences": {}
}